:100000000C9443000C94C8090C94C8090C94C809BA
:100010000C94C8090C94C8090C94C8090C94C8091C
:100020000C94C8090C94C8090C94C8090C94C8090C
:100030000C94C8090C94C8090C94C8090C94C809FC
:100040000C94C8090C94C8090C94C8090C94C809EC
:100050000C94C8090C94C8090C94C8090C94C809DC
:100060000C94C8090C94C8090100012680012601DE
:100070003500139401350139800139013B0013A388
:10008000013B013C800011241FBECFEFD8E0DEBF52
:10009000CDBFE8E6F0E040E017C0B591A5913591FD
:1000A0002591059107FD0CC095918591EF01F92FE0
:1000B000E82F05900D92A217B307D9F7FE0104C0EF
:1000C0001D92A217B307E1F7E538F40731F70E9454
:0A00D000E3080C946B00F894FFCFD6
:1000DA0043201BC02020202020202564DF00202070
:1000EA00204F4E002020204F46460025642E2564CE
:1000FA00DF0043202D3E2025642E2564DF004320A7
:0A010A003C2D2025642E2564DF0043
:100114002F923F924F926F927F928F929F92AF92C3
:10012400BF92CF92DF92EF92FF920F931F93CF93E0
:10013400DF93CDB7DEB762970FB6F894DEBF0FBE7C
:10014400CDBF6C013A01862E7901FC01108617821D
:10015400848181FFE7C19E012F5F3F4F3D872C873C
:10016400C901A0E8888B998BAA8B9FE3992EF30190
:10017400849187FC8081882309F4D0C1482D9301A0
:100184002F5F3F4F4F4F853219F03901842E0AC03B
:10019400F901849147FD808192E0690E711C811CF4
:1001A400853229F4B60190E00E948D07E0CFB12C8E
:1001B40000E010E01032A0F48B3269F030F48032A9
:1001C40059F0833269F410612CC08D3239F08033D8
:1001D40039F4116026C01260146023C0186021C075
:1001E40017FD29C090ED980F9A3078F416FF06C0D9
:1001F400AAE0BA9E900D1124B92E13C0EAE00E9F16
:10020400900D1124092F10620CC08E3221F416FDBA
:1002140085C1106406C08C3611F4106802C088369B
:1002240051F4F301849187FC8081FFEF6F1A7F0AF8
:100234008F0A8111BFCF982F9F7D9554933028F456
:1002440024E0E20EF11C99820FC0833631F083372B
:1002540091F0833509F063C027C0F7018081898359
:1002640097012E5F3F4F7901288839884A88AA244C
:10027400A394B12C17C0A7014D5F5F4F5F874E87D2
:10028400F70120803180428016FF03C04B2D50E0DF
:1002940002C04FEF5FEF842DB1010E94AD085C01F5
:1002A400EE84FF841F7718C097012D5F3F4F3F876F
:1002B4002E87F70120803180428016FF03C04B2D2A
:1002C40050E002C04FEF5FEF842DB1010E94AD08F2
:1002D4005C011068EE84FF8413FD1DC0802F90E044
:1002E400A816B906C0F4B60180E290E00E948D071A
:1002F4000150F4CFF101849147FC8081FFEF2F1A64
:100304003F0A4F0AB60190E00E948D070111015087
:1003140021E0A21AB108A114B10461F7F5C0843632
:1003240011F0893671F5F70117FF08C060817181FA
:100334008281938197012C5F3F4F09C06081718155
:10034400072E000C880B990B97012E5F3F4F790104
:100354001F76312E97FF0AC0909580957095619510
:100364007F4F8F4F9F4F312F3068332E2AE030E07C
:10037400AE014F5F5F4F0E941D06482E4C85441A04
:100384004AC0853729F41F7EA12E2AE030E025C01B
:10039400512F597FA52E8F36C1F018F4883579F086
:1003A400BDC0803719F0883721F0B8C0852F80612F
:1003B400A82EA4FE0DC09A2D9460A92E09C014FF86
:1003C4000AC0A52FA660AA2E06C028E030E005C00A
:1003D40020E130E002C020E132E0F701A7FE08C0CE
:1003E4006081718182819381A7014C5F5F4F07C057
:1003F4006081718180E090E0A7014E5F5F4F7A01D8
:10040400AE014F5F5F4F0E941D06482E5C85451A62
:100414008A2D8F77382E36FE0DC0932D9E7FA92E00
:100424004B1458F434FE0BC032FC09C0A32DAE7E2D
:10043400AA2E05C0142DA32C03C0142D01C01B2DFE
:10044400A4FE0EC0FE01E40DF11D8081803321F471
:10045400EA2DE97EAE2E08C0A2FE05C01E5F04C0D0
:100464008A2D867809F01F5FA3FC11C0A0FE06C088
:10047400101788F4040DB02EB11A0EC0101760F4D2
:10048400B60180E290E00E948D071F5FF7CF10173E
:1004940018F4011B02C0B42C00E0A4FE10C0B60185
:1004A40080E390E00E948D07A2FE17C0A1FC03C068
:1004B40088E790E002C088E590E0B6010CC08A2D80
:1004C400867859F0A1FE02C08BE201C080E2A7FC4D
:1004D4008DE2B60190E00E948D074B1438F4B6010A
:1004E40080E390E00E948D07BA94F7CF4A94E1E04C
:1004F400F0E0EC0FFD1FE40DF11D8081B60190E0EA
:100504000E948D074110F2CF002309F430CEB601CA
:1005140080E290E00E948D070150F6CFF6018781BA
:10052400908502C08FEF9FEF62960FB6F894DEBFFE
:100534000FBECDBFDF91CF911F910F91FF90EF9030
:10054400DF90CF90BF90AF909F908F907F906F90EF
:080554004F903F902F90089595
:10055C00CF93DF93359909C0809137019091380181
:10056C00019690933801809337018091370180FD7B
:10057C0067C08091100190911101A0911201B0916E
:10058C0013018093140190931501A0931601B0935D
:10059C001701C0E2D1E086E291E09D838C8320912B
:1005AC0003012F93209102012F93209105012F938A
:1005BC00209104012F9325EF30E040E04F933F93BF
:1005CC002F939F938F930E942709809101018F9302
:1005DC00809100018F93809107018F938091060188
:1005EC008F938CEF90E0A0E0AF939F938F938D81CE
:1005FC008F938C818F930E94270980913A018F935E
:10060C00809139018F938AED90E0A0E0AF939F9396
:10061C008F938D818F938C818F930E9427096C818E
:10062C007D8183E490E00E948D078DB79EB749963B
:10063C000FB6F8949EBF0FBE8DBF359BFECF64C026
:10064C0080910C0190910D01A0910E01B0910F01C0
:10065C008093140190931501A0931601B093170188
:10066C00809103018F93809102018F9380910501FA
:10067C008F93809104018F9385EF90E0A0E0AF936E
:10068C009F938F93C0E2D1E08D818F938C818F9358
:10069C000E942709809101018F93809100018F9313
:1006AC00809107018F93809106018F9388E091E0F0
:1006BC00A0E0AF939F938F938D818F938C818F93B9
:1006CC000E94270980913A018F93809139018F9371
:1006DC008AED90E0A0E0AF939F938F938D818F93E1
:1006EC008C818F930E9427096C817D8183E490E03B
:1006FC000E948D078DB79EB749960FB6F8949EBF92
:0E070C000FBE8DBF359BFECFDF91CF910895BC
:10071A00CF92DF92EF92FF92CF93DF93EAE7F0E076
:10072A00808180688083ACE7B0E08C91886C8C9380
:10073A0081EE94E00197F1F700C0000080818064A7
:10074A008083808184FFFDCFCAE7D0E088818F7ED5
:10075A008883609178007091790080E090E00E942F
:10076A0014072DEC3CEC4CE85FE30E94C1092AE037
:10077A0037ED43E251E40E94BD0960931C01709376
:10078A001D0180931E0190931F012EEE3BE64AE065
:10079A0052E40E94840920E53DE847E95DE30E94AE
:1007AA00BD096B017C0160930C0170930D0180936C
:1007BA000E0190930F010E948B09709305016093BB
:1007CA000401072E000C880B990B0E9416079B0147
:1007DA00AC01C701B6010E94840920E030E040E282
:1007EA0051E40E94C1096093180170931901809322
:1007FA001A0190931B010E948B0970930301609365
:10080A00020110927C001882DF91CF91FF90EF9045
:06081A00DF90CF9008956D
:1008200010C00E94990958F00E94920940F029F4E2
:100830005F3F29F00C94AD0951110C94A1090C945F
:10084000C5090E946F0868F39923B1F3552391F30A
:10085000951B550BBB27AA2762177307840738F02F
:100860009F5F5F4F220F331F441FAA1FA9F335D08C
:100870000E2E3AF0E0E832D091505040E695001C40
:10088000CAF72BD0FE2F29D0660F771F881FBB1FFA
:10089000261737074807AB07B0E809F0BB0B802DD8
:1008A000BF01FF2793585F4F3AF09E3F510578F004
:1008B0000C94AD090C94A1095F3FE4F3983ED4F386
:1008C000869577956795B795F7959F5FC9F7880FD8
:1008D000911D9695879597F90895E1E0660F771F2A
:1008E000881FBB1F621773078407BA0720F0621BBB
:0E08F000730B840BBA0BEE1F88F7E09508958A
:1008FE00CF92DF92EF92FF92CF93DF93EAE7F0E091
:10090E00808180688083ACE7B0E08C9180648C93AA
:10091E00808180648083808184FFFDCFCAE7D0E030
:10092E0088818F7E88838091780090917900BC01B8
:10093E00660F771F660F771F680F791F80E090E0B4
:10094E000E9414072AE037ED43E251E40E94BD09EC
:10095E006B017C0160931001709311018093120161
:10096E00909313010E948B09709307016093060107
:10097E00072E000C880B990B0E9416079B01AC01E9
:10098E00C701B6010E94840920E030E040E251E444
:10099E000E94C109609308017093090180930A01B6
:1009AE0090930B010E948B097093010160930001DB
:1009BE0010927C001882DF91CF91FF90EF90DF9024
:0409CE00CF90089529
:1009D2000FC00E94920938F00E94990920F09523D5
:1009E20011F00C94AD090C94C50911240C94A109C1
:1009F2000E946F0870F3959FC1F3950F50E0551F49
:100A0200629FF001729FBB27F00DB11D639FAA2761
:100A1200F00DB11DAA1F649F6627B00DA11D661FB0
:100A2200829F2227B00DA11D621F739FB00DA11DD1
:100A3200621F839FA00D611D221F749F3327A00D8B
:100A4200611D231F849F600D211D822F762F6A2F27
:100A520011249F5750409AF0F1F088234AF0EE0F8C
:100A6200FF1FBB1F661F771F881F91505040A9F7B9
:100A72009E3F510580F00C94AD090C94A1095F3F93
:100A8200E4F3983ED4F3869577956795B795F795F5
:100A9200E7959F5FC1F7FE2B880F911D969587956D
:040AA20097F9089523
:100AA60011C00E94920938F00E94990920F039F489
:100AB6009F3F19F426F40C94C5090EF4E095E7FB64
:100AC6000C94AD09E92F0E946F0858F3BA17620714
:100AD60073078407950720F079F4A6F50C94A0090E
:100AE6000EF4E0950B2EBA2FA02D0B01B901900143
:100AF6000C01CA01A0011124FF27591B99F0593F87
:100B060050F4503E68F11A16F040A22F232F342FCE
:100B16004427585FF3CF469537952795A795F0401C
:100B26005395C9F77EF41F16BA0B620B730B840B31
:100B3600BAF09150A1F0FF0FBB1F661F771F881FE9
:100B4600C2F70EC0BA0F621F731F841F48F4879541
:100B560077956795B795F7959E3F08F0B0CF939533
:0E0B6600880F08F09927EE0F97958795089550
:100B740033992FC08091390190913A01839731F4D0
:100B840089E090E090933A01809339018091390192
:100B940090913A01019690933A01809339019F9381
:100BA4008F938AED90E0A0E0AF939F938F93E0E260
:100BB400F1E085818F9384818F930E9427098DB7FB
:100BC4009EB707960FB6F8949EBF0FBE8DBF339B9A
:100BD400FECF34992FC08091390190913A010A9740
:100BE40031F484E290E090933A018093390180914A
:100BF400390190913A01019790933A018093390118
:100C04009F938F938AED90E0A0E0AF939F938F938F
:100C1400E0E2F1E085818F9384818F930E9427091C
:100C24008DB79EB707960FB6F8949EBF0FBE8DBFC3
:060C3400349BFECF089581
:100C3A00FA01AA27283051F1203181F1E8946F9303
:100C4A006E7F6E5F7F4F8F4F9F4FAF4FB1E03ED0A9
:100C5A00B4E03CD0670F781F891F9A1FA11D680F47
:100C6A00791F8A1F911DA11D6A0F711D811D911D7A
:100C7A00A11D20D009F468943F912AE0269F1124EF
:100C8A003019305D3193DEF6CF010895462F477053
:100C9A00405D4193B3E00FD0C9F7F6CF462F4F70AE
:100CAA00405D4A3318F0495D31FD4052419302D00C
:100CBA00A9F7EACFB4E0A6959795879577956795B2
:100CCA00BA95C9F700976105710508959B01AC01B2
:100CDA000A2E06945795479537952795BA95C9F7D9
:0C0CEA00620F731F841F951FA01D08954A
:100CF6002F923F924F926F927F928F92AF92BF92B6
:100D0600CF92DF92EF920F931F93CF93DF93A82F8B
:100D1600CB015901F801248121FF28C0C0E0D0E0B1
:100D26003A01550F8808CA15DB0519F16C01EA2E40
:100D36001C014A2E260C371C481CAE2DC601C214B7
:100D4600D304E40489F0F80121853285B801F6015F
:100D56008491E7FC8081F9010995FFEFCF1ADF0A3C
:100D6600EF0A892B51F305C02196DDCF80E090E094
:100D760001C0CE01DF91CF911F910F91EF90DF90CF
:100D8600CF90BF90AF908F907F906F904F903F9095
:040D96002F900895FD
:100D9A006091390170913A01072E000C880B990B6A
:100DAA000E94160720E030E040E05FE30E948409D9
:100DBA0020911401309115014091160150911701AB
:100DCA000E94B809181634F481E090E09093360135
:100DDA00809335010E94F8076091390170913A01B8
:100DEA00072E000C880B990B0E94160720E030E0B2
:100DFA0040E05FE30E9485092091140130911501BA
:100E0A0040911601509117010E94B309882324F4D6
:0E0E1A0010923601109235010E94F8070895DB
:100E2800E89409C097FB3EF490958095709561957C
:100E38007F4F8F4F9F4F9923A9F0F92F96E9BB2732
:100E48009395F695879577956795B795F111F8CFAE
:100E5800FAF4BB0F11F460FF1BC06F5F7F4F8F4F19
:100E68009F4F16C0882311F096E911C0772321F00F
:100E78009EE8872F762F05C0662371F096E8862FA7
:100E880070E060E02AF09A95660F771F881FDAF7FE
:0A0E9800880F9695879597F9089545
:100EA200509A519A529A8AB1806F8AB985EA9EE025
:100EB2000197F1F700C0000060E083E00E943A0968
:100EC20080E094E00197F1F700C0000060E083E069
:100ED2000E943A0991E29A95F1F7000060E083E0FE
:100EE2000E943A098CE08A95F1F7000060E082E006
:100EF2000E943A0980E00E94A70960E088E20E940D
:100F02005C0980E00E94A70960E088E00E945C0919
:080F120080E00E94A709089588
:100F1A000F931F93CF93DF93FB01248121FD03C01D
:100F2A008FEF9FEF2CC022FF16C047815085258185
:100F3A0036814217530744F4A081B1819D012F5F86
:100F4A003F4F318320838C93278130852F5F3F4F1A
:100F5A003087278314C08B01EC01FB010184F285E1
:100F6A00E02D0995892BE1F6D80117968D919C9170
:100F7A001897019618969C938E931797CE01DF9136
:080F8A00CF911F910F91089512
:100F92000E94770888F09F5798F0B92F9927B75188
:100FA200B0F0E1F0660F771F881F991F1AF0BA950B
:100FB200C9F714C0B13091F00E94A009B1E00895C0
:100FC2000C94A009672F782F8827B85F39F0B93FB2
:100FD200CCF3869577956795B395D9F73EF49095BE
:0E0FE2008095709561957F4F8F4F9F4F0895BA
:100FF0000F931F938091350190913601019771F401
:10100000289A009124011091250125E030E041E06B
:1010100050E068EE70E080E00E947B068091350130
:1010200090913601892B71F4289800912401109138
:10103000250126E030E041E050E06EEE70E080E017
:0A1040000E947B061F910F91089596
:10104A00CF93C82F80913B0181110EC0CB3121F47F
:10105A0081E080933B0116C080E00E94A70961E00D
:10106A008C2F0E945C090EC080E00E94A70960E0F4
:10107A008C2F0E945C09C43018F481E00E94A709F1
:0C108A0010923B0180E090E0CF910895AF
:10109600990F0008550FAA0BE0E8FEEF1616170683
:1010A600E807F907C0F012161306E407F50798F0EB
:1010B600621B730B840B950B39F40A2661F0232B04
:1010C600242B252B21F408950A2609F4A140A69580
:0810D6008FEF811D811D0895BB
:1010DE0057FD9058440F551F59F05F3F71F04795DB
:1010EE00880F97FB991F61F09F3F79F087950895C0
:1010FE00121613061406551FF2CF4695F1DF08C0DF
:10110E00161617061806991FF1CF869571056105FB
:04111E000894089594
:101122002F923F924F925F926F927F928F929F92F5
:10113200AF92BF92CF92DF92EF92FF920F931F93E3
:10114200CF93DF93CDB7DEB7CA1BDB0B0FB6F89494
:08115200DEBF0FBECDBF099402
:10115A00CF92DF92EF926B01E82EA82FCB014115B7
:10116A00510531F48C199D09EF90DF90CF900895C5
:10117A00FC012491A7FD20812223A1F30196A11D40
:06118A0041505109ECCFB9
:101190002A88398848885F846E847D848C849B8407
:1011A000AA84B984C884DF80EE80FD800C811B8115
:1011B000AA81B981CE0FD11D0FB6F894DEBF0FBE44
:0611C000CDBFED01089512
:1011C6000E947B090E947F040E948D030E94BA053B
:1011D6000E94FB080E94AE020E94CD062FE986E817
:1011E60091E0215080409040E1F700C00000EACF36
:1011F6000E94510760E081E00E945C0981E00E9444
:10120600A70960E086E00E945C0980E00E94A709C9
:1012160060E08EE00E945C0980E00E94A7090895C4
:10122600599A9AB19F709AB9882311F0589A01C0B9
:1012360058985A9A000089B15A989AB1906F9AB9FB
:08124600599882958F700895FC
:10124E00A0E0B0E0EDE2F9E00C94A1089E01265F6B
:10125E003F4F4F81588569858D819E810E948A00FE
:06126E00E2E00C94D80838
:101274005998662311F0589A01C058982BB12F70D1
:1012840030E1839FC0011124822B8BB95A9A5A985A
:021294000895BB
:10129600092E0394000C11F4882352F0BB0F40F47E
:1012A600BF2B11F460FF04C06F5F7F4F8F4F9F4FBE
:0212B600089599
:1012B800CF93DF93C82FD62F82958F700E943A095B
:1012C8006D2F8C2F8F700E943A09DF91CF9108956E
:1012D800CF93DF93C82F0E941309D82FD295D07FC0
:0E12E8008C2F0E9413098D2BDF91CF9108955A
:1012F6003B98439A3C98449A3D98459A209A289858
:02130600089548
:0E1308005058BB27AA270E9453050C944B098E
:0E1316000E94C9076894B1110C94A1090895B2
:0E13240000240A9416161706180609060895E6
:0E13320000240A9412161306140605060895E8
:0E134000E894BB2766277727CB0197F908951D
:0C134E0080E00E946C098823DCF3089505
:0C135A0097F99F6780E870E060E008955C
:0A1366000E944B0808F481E008958E
:0A1370000E944B0808F48FEF089567
:08137A000E9410040C944B09C1
:081382000E94E9040C944B09E0
:06138A009FEF80EC0895C6
:041390000C940000B9
:0F1394000000000002000000002508000000001B
:0213A300170031
:00000001FF
